{
  "contractName": "Auction",
  "abi": [
    {
      "inputs": [],
      "stateMutability": "nonpayable",
      "type": "constructor"
    },
    {
      "inputs": [],
      "name": "highestBid",
      "outputs": [
        {
          "internalType": "uint256",
          "name": "",
          "type": "uint256"
        }
      ],
      "stateMutability": "view",
      "type": "function",
      "constant": true
    },
    {
      "inputs": [],
      "name": "highestBidder",
      "outputs": [
        {
          "internalType": "address",
          "name": "",
          "type": "address"
        }
      ],
      "stateMutability": "view",
      "type": "function",
      "constant": true
    },
    {
      "inputs": [
        {
          "internalType": "address",
          "name": "",
          "type": "address"
        }
      ],
      "name": "userBalances",
      "outputs": [
        {
          "internalType": "uint256",
          "name": "",
          "type": "uint256"
        }
      ],
      "stateMutability": "view",
      "type": "function",
      "constant": true
    },
    {
      "stateMutability": "payable",
      "type": "receive",
      "payable": true
    },
    {
      "inputs": [],
      "name": "bid",
      "outputs": [],
      "stateMutability": "payable",
      "type": "function",
      "payable": true
    },
    {
      "inputs": [],
      "name": "withdraw",
      "outputs": [
        {
          "internalType": "bool",
          "name": "",
          "type": "bool"
        }
      ],
      "stateMutability": "nonpayable",
      "type": "function"
    }
  ],
  "bytecode": "0x608060405234801561001057600080fd5b506000600181905550336000806101000a81548173ffffffffffffffffffffffffffffffffffffffff021916908373ffffffffffffffffffffffffffffffffffffffff1602179055506105de806100686000396000f3fe60806040526004361061004e5760003560e01c80631998aeef1461005a57806326224c64146100645780633ccfd60b146100a157806391f90157146100cc578063d57bde79146100f757610055565b3661005557005b600080fd5b610062610122565b005b34801561007057600080fd5b5061008b600480360381019061008691906103b9565b6101af565b60405161009891906104cb565b60405180910390f35b3480156100ad57600080fd5b506100b66101c7565b6040516100c39190610470565b60405180910390f35b3480156100d857600080fd5b506100e161037a565b6040516100ee9190610455565b60405180910390f35b34801561010357600080fd5b5061010c61039e565b60405161011991906104cb565b60405180910390f35b6001543411610166576040517f08c379a000000000000000000000000000000000000000000000000000000000815260040161015d906104ab565b60405180910390fd5b336000806101000a81548173ffffffffffffffffffffffffffffffffffffffff021916908373ffffffffffffffffffffffffffffffffffffffff16021790555034600181905550565b60026020528060005260406000206000915090505481565b600080600260003373ffffffffffffffffffffffffffffffffffffffff1673ffffffffffffffffffffffffffffffffffffffff16815260200190815260200160002054905060008054906101000a900473ffffffffffffffffffffffffffffffffffffffff1673ffffffffffffffffffffffffffffffffffffffff163373ffffffffffffffffffffffffffffffffffffffff16141561029b576040517f08c379a00000000000000000000000000000000000000000000000000000000081526004016102929061048b565b60405180910390fd5b6000811115610371576000600260003373ffffffffffffffffffffffffffffffffffffffff1673ffffffffffffffffffffffffffffffffffffffff168152602001908152602001600020819055503373ffffffffffffffffffffffffffffffffffffffff166108fc829081150290604051600060405180830381858888f193505050506103705780600260003373ffffffffffffffffffffffffffffffffffffffff1673ffffffffffffffffffffffffffffffffffffffff168152602001908152602001600020819055506000915050610377565b5b60019150505b90565b60008054906101000a900473ffffffffffffffffffffffffffffffffffffffff1681565b60015481565b6000813590506103b381610591565b92915050565b6000602082840312156103cb57600080fd5b60006103d9848285016103a4565b91505092915050565b6103eb816104f7565b82525050565b6103fa81610509565b82525050565b600061040d6012836104e6565b91506104188261053f565b602082019050919050565b60006104306016836104e6565b915061043b82610568565b602082019050919050565b61044f81610535565b82525050565b600060208201905061046a60008301846103e2565b92915050565b600060208201905061048560008301846103f1565b92915050565b600060208201905081810360008301526104a481610400565b9050919050565b600060208201905081810360008301526104c481610423565b9050919050565b60006020820190506104e06000830184610446565b92915050565b600082825260208201905092915050565b600061050282610515565b9050919050565b60008115159050919050565b600073ffffffffffffffffffffffffffffffffffffffff82169050919050565b6000819050919050565b7f4e6f2066756e647320617661696c61626c650000000000000000000000000000600082015250565b7f5468657265206973206120686967686572206269642100000000000000000000600082015250565b61059a816104f7565b81146105a557600080fd5b5056fea2646970667358221220fa6196bc2596ca9e17cbb7647dc510642a601d9358e13800bc9d4391661897c464736f6c63430008040033",
  "immutableReferences": {},
  "source": "// SPDX-License-Identifier: GPL-3.0\n\npragma solidity >=0.7.0 <0.9.0;\n\n\n\ncontract Auction {\n        address  public highestBidder;\n        uint public highestBid;\n        mapping(address=> uint) public userBalances;\n        \n        \n        \n        \n        constructor() {\n            highestBid = 0;\n            highestBidder = msg.sender;\n        }\n        \n        \n        function bid() public payable {\n            require(msg.value > highestBid,\"There is a higher bid!\");\n             highestBidder = msg.sender;\n             highestBid = msg.value;\n        }\n        \n\n        function withdraw()public returns(bool) {\n            uint amount = userBalances[msg.sender];\n            \n            require(msg.sender != highestBidder,\"No funds available\");\n            \n            if(amount > 0) {\n                userBalances[msg.sender] = 0;\n                \n                if(!payable(msg.sender).send(amount)) {\n                    userBalances[msg.sender] = amount;\n                    return false;\n                    \n                }\n                \n            }\n            return true;\n            \n       }\n    receive() external payable { }\n\n}\n",
  "sourcePath": "/home/rafael/Documents/dapp/contracts/Auction.sol",
  "compiler": {
    "name": "solc",
    "version": "0.8.4+commit.c7e474f2.Emscripten.clang"
  },
  "schemaVersion": "3.4.1",
  "updatedAt": "2021-05-25T16:37:38.967Z",
  "networkType": "ethereum",
  "devdoc": {
    "kind": "dev",
    "methods": {},
    "version": 1
  },
  "userdoc": {
    "kind": "user",
    "methods": {},
    "version": 1
  }
}